:040000003CEF00F0E1
:100008001982FACF15F0FBCF16F0A0A60EEF00F07C
:1000180010EF00F026EF00F0A1A615EF00F017EFA3
:1000280000F026EF00F002D824EF00F00500FA6E89
:100038000B50FD6E0C50FE6EF850FF6EFA50120019
:1000480036EF00F09DA62BEF00F02DEF00F036EF15
:1000580000F09EA632EF00F034EF00F036EF00F02B
:1000680017EF00F016C0FBFF15C0FAFF1992110038
:1000780077EF01F003EC02F0A2EC01F00009D8B42C
:1000880048EF00F04AEF00F05CEF00F098EC01F068
:100098000009D8B452EF00F054EF00F058EF00F028
:1000A800010E0D6E9CEF00F0020E0D6E9CEF00F03D
:1000B80098EC01F00009D8B464EF00F066EF00F0A6
:1000C8006AEF00F0030E0D6E9CEF00F0040E0D6E4B
:1000D8009CEF00F051EC01F084EC01F00009D8B479
:1000E80078EF00F07AEF00F0B9EF00F023EC01F0C0
:1000F800B9EF00F051EC01F0B9EF00F084EC01F039
:100108000009D8B48AEF00F08CEF00F0B9EF00F0E6
:100118007AEF00F08EEC01F00009D8B496EF00F009
:1001280098EF00F0B9EF00F03AEC01F0B9EF00F009
:100138000D50136E146A1450000AD8B4A6EF00F0DC
:10014800B9EF00F01350010AD8B46EEF00F0030ABB
:10015800D8B47EEF00F0010AD8B482EF00F0070AA5
:10016800D8B48EEF00F0B9EF00F001EC02F0120005
:1001780068EC01F0700EE8EC01F07F0EE4EC01F0A1
:100188007C0E176E000E186ED1EC01F0000E176E83
:10019800000E186ED6EC01F0D80E176E030E186E0E
:1001A800C2EC01F0E80E176E030E186ECCEC01F0ED
:1001B800F00E176E030E186EDBEC01F0000E176ED2
:1001C800000E186EC7EC01F0FFEC01F01200ACEC69
:1001D80001F0F28EF28CF28CF29CBCEC00F0F80E7E
:1001E800176E030E186ECCEC01F0230E1164FFEFAE
:1001F80000F001EF01F005EF01F08B808B92F9EF31
:1002080000F08B908B92F9EF00F03CEF00F0000EBD
:100218008D6E000E8C6E000E896E000E8A6E000EBA
:100228008B6E070E966E92689368FC0E946E9568B6
:100238007E681F0E7F6E000E7C6EF18E12000750D6
:100248000810D8B42AEF01F02CEF01F039EF01F0D3
:1002580002D839EF01F00500FA6E0750FD6E08501C
:10026800FE6EF850FF6EFA501200120009500A1084
:10027800D8B441EF01F043EF01F050EF01F002D89C
:1002880050EF01F00500FA6E0950FD6E0A50FE6E3F
:10029800F850FF6EFA501200120005500610D8B43C
:1002A80058EF01F05AEF01F067EF01F002D867EF5D
:1002B80001F00500FA6E0550FD6E0650FE6EF8500E
:1002C800FF6EFA5012001200C6BA6DEF01F06FEF20
:1002D80001F076EF01F0800EC76E060EC612000E12
:1002E800C56EC68A120000EE01F0110EEE6AE8062D
:1002F800FDE119901992000EF86E0001EBEF00F085
:10030800C7A089EF01F08CEF01F0010E8DEF01F02D
:10031800000E1200C7B093EF01F096EF01F0010E46
:1003280097EF01F0000E1200C7B49DEF01F0A0EFA7
:1003380001F0010EA1EF01F0000E1200C7AAA7EF0D
:1003480001F0AAEF01F0010EABEF01F0000E120070
:10035800E0EC01F0B5EC01F00BEC01F0BDEC01F0C4
:100368001200800EC76E060EC612000EC56EC69A23
:100378001200300ED36E000E9B6E120017C007F0ED
:1003880018C008F0120017C001F018C002F01200DF
:1003980017C009F018C00AF0120017C00BF018C0F7
:1003A8000CF0120017C003F018C004F0120017C0B8
:1003B80005F018C006F01200D08EA2869F861200A3
:1003C800176E17C077FF1200176E17C0C8FF12000C
:1003D8001050F0EC01F01200126E12C0C9FF1200AA
:1003E80005EC02F00F6E120005EC02F00E6E120022
:1003F800C9CF11F012009D861200C68812009E9681
:060408001200C9501200B1
:020000040030CA
:0E000000FF021F1EFF8B85FF0FC00FE00F4099
:00000001FF
