:040000005BEF00F0C2
:100008004A82FACF40F0FBCF41F0D9CF42F0DACFA5
:1000180043F0F3CF44F0F4CF45F0F6CF46F0F7CFF6
:1000280047F0F8CF48F0F5CF49F0A0A61EEF00F052
:1000380020EF00F035EF00F0A1A625EF00F027EF44
:1000480000F035EF00F002D833EF00F00500FA6E4B
:100058002B50FD6E2C50FE6EFF6AFA50120045EFD1
:1000680000F09DA63AEF00F03CEF00F045EF00F0FD
:100078009EA641EF00F043EF00F045EF00F027EFB8
:1000880000F049C0F5FF48C0F8FF47C0F7FF46C079
:10009800F6FF45C0F4FF44C0F3FF43C0DAFF42C097
:1000A800D9FF41C0FBFF40C0FAFF4A921100B5EFEB
:0200B8000CF04A
:1010000000301BD01ADE1AF8105C12261B9E147AD0
:101010001B721B6A1B621B5A1B521B4A1B1C1BD6D2
:101020001653797374656D20537461727465640D21
:101030000044617465203A20000035EC0DF0F28E1A
:10104000F28CF28C210E0001796F100E7A6F000E77
:101050007C6F0F0E7B6F9DEC0BF0080E0001846F10
:10106000050E856FA60E40EC0DF0850EE82EFED71E
:1010700000F0080E0001846F060E856FA20E40EC92
:101080000DF0850EE82EFED700F0080E0001846FEB
:10109000A60E5FEC0DF02F6E080E0001846FA20EFD
:1010A0005FEC0DF02E6E03EC0BF020EE60F0050E01
:1010B000EBCFDBFFE806FCE2DBEC08F09E0EF9EC80
:1010C0000CF02D6E000E0001816F2DC082F0700EAD
:1010D0008CEC0AF00B0E00018B6F260E8A6F5D0EF2
:1010E000E82EFED78A2FFCD78B2FFAD700F000F01E
:1010F00053EF08F05BEF00F055EC0DF00009D8B4A9
:1011000084EF08F086EF08F0C0EF08F094EF08F0E5
:10111000BDEC0DF0DAEF08F0B9EC0DF0DAEF08F005
:10112000B1EC0DF0DAEF08F013C03AF014C03BF068
:1011300002D8A4EF08F00500FA6E0750FD6E0850C3
:10114000FE6EFF6AFA5012003C6E3D6A3D50000A86
:10115000D8B4ADEF08F090EF08F03C50010AD8B4D5
:1011600090EF08F0030AD8B488EF08F0010AD8B469
:101170008CEF08F0070AD8B490EF08F090EF08F071
:1011800024901EC0D9FF1FC0DAFF1E4A1F2ADF505D
:10119000C1EC0DF02006D8A0210620502110D8A4C3
:1011A000D4EF08F0D6EF08F0D9EF08F0060EDAEF2A
:1011B00008F0030E12002A380F0B300F0001666F83
:1011C0002A500F0B300F676F2D0E686F29380F0BE9
:1011D000300F696F29500F0B300F6A6F2D0E6B6F38
:1011E00028380F0B300F6C6F28500F0B300F6D6FBE
:1011F0002F0E6E6F25380F0B300F6F6F25500F0BB2
:10120000300F706F2D0E716F26380F0B300F726F0D
:1012100026500F0B300F736F2D0E746F27380F0B86
:10122000300F756F27500F0B300F766F0D0E776FE5
:10123000310E796F100E7A6F000E7C6F080E7B6F87
:101240009DEC0BF0660E0001796F000E7A6F000EB8
:101250007C6F120E7B6F9DEC0BF01200DCEC0DF03E
:101260001EC0D9FF1FC0DAFFDF6E1E4A1F2A2006EC
:10127000D8A0210620502110D8B441EF09F043EF47
:1012800009F048EF09F0C8EC0DF0050E7FEF09F00A
:10129000248653EF09F0A5EC0DF07FEF09F0A9ECDF
:1012A0000DF07FEF09F00DC03AF00EC03BF002D810
:1012B00063EF09F00500FA6E0150FD6E0250FE6EFC
:1012C000FF6AFA5012003C6E3D6A3D50000AD8B4E5
:1012D0006CEF09F04FEF09F03C50010AD8B44FEF22
:1012E00009F0030AD8B44BEF09F0010AD8B44BEF68
:1012F00009F0070AD8B44FEF09F04FEF09F01200D8
:1013000000017A6F010E00017B6F24B48AEF09F0AF
:101310008CEF09F0CFEF09F07AC01DF024922484FD
:1013200024900E0E226E010E1C6EF40E1B6E24868F
:10133000C40E016E1B0E026E000E0D6E000E0E6EC0
:10134000C40E036E1B0E046E000E0F6E000E106EA8
:10135000C40E056E1B0E066E000E116E000E126E90
:10136000C40E076E1B0E086E000E136E000E146E78
:10137000C00E096E1B0E0A6E000E156E000E166E64
:101380008A0E786F1B0E796F89EC0DF0D6EC0DF09C
:10139000D7EC0CF0CEEC0DF0000E00017B6F7B5112
:1013A00012000001826F000E0001836F0001825164
:1013B00080EC09F00009D8B4E0EF09F0E2EF09F0A1
:1013C000D6EF09F0120E00017D6F190E7E6F830EAD
:1013D0007F6F000E806F11EC0DF0810E0001786FB1
:1013E000000E796F000E7B6F010E7A6FC6EC0CF069
:1013F000000E00017D6F000E7E6F000E7F6F000EED
:10140000806F1DEC0DF0A1EC0DF046EC0CF0E80641
:10141000D8B40DEF0AF00FEF0AF005EF0AF0000163
:101420008351120000017C6F000178517911D8B40A
:101430001CEF0AF01EEF0AF038EF0AF07C51020DA3
:10144000010EF324D96E000EF420DA6E78C0DEFFB0
:1014500079C0DDFF7C51020D0D0EF324D96E000E14
:10146000F420DA6E7AC0DEFF7BC0DDFF4EEF0AF0BB
:101470007C51020D010EF324D96E000EF420DA6EB9
:10148000C40EDE6E1B0EDD6E7C51020D0D0EF324BC
:10149000D96E000EF420DA6EDE6ADD6A1200248650
:1014A0005FEF0AF0B5EC0DF08BEF0AF0DAEC0DF01F
:1014B000030E8BEF0AF0B1EC0DF08BEF0AF00DC0CC
:1014C0003AF00EC03BF002D86FEF0AF00500FA6E5A
:1014D0000150FD6E0250FE6EFF6AFA5012003C6E23
:1014E0003D6A3D50000AD8B478EF0AF05BEF0AF08D
:1014F0003C50010AD8B45BEF0AF0030AD8B452EFAB
:101500000AF0010AD8B452EF0AF0070AD8B456EF2D
:101510000AF05BEF0AF012000001836F00018351B3
:1015200080EC09F00009D8B498EF0AF09AEF0AF0BD
:101530008EEF0AF0BA0E00017D6F180E7E6F820EDC
:101540007F6F000E806F11EC0DF0810E0001786F3F
:10155000000E796F000E7B6F010E7A6FC6EC0CF0F7
:10156000000E00017D6F000E7E6F000E7F6F000E7B
:10157000806F1DEC0DF0A1EC0DF046EC0CF0E806D0
:10158000D8B4C5EF0AF0C7EF0AF0BDEF0AF01200B9
:10159000356E31503210D8B4D0EF0AF0D2EF0AF0E5
:1015A000ECEF0AF03550020D010EF324D96E000E57
:1015B000F420DA6E31C0DEFF32C0DDFF3550020D9F
:1015C0000D0EF324D96E000EF420DA6E33C0DEFF68
:1015D00034C0DDFF02EF0BF03550020D010EF32495
:1015E000D96E000EF420DA6EC40EDE6E1B0EDD6EB8
:1015F0003550020D0D0EF324D96E000EF420DA6E74
:10160000DE6ADD6A1200000E0001816FD00ED1EC9F
:1016100009F0276E010E0001816FD00ED1EC09F0A8
:10162000266E020E0001816FD00ED1EC09F0256EFE
:10163000040E0001816FD00ED1EC09F02A6E050E68
:101640000001816FD00ED1EC09F0296E060E000169
:10165000816FD00ED1EC09F0286E20EE25F000EE5F
:1016600084F0050EDBCFEBFFE806FCE21200D8ECBD
:101670000DF024A03EEF0BF040EF0BF04CEF0BF021
:1016800055EC0DF00009D8B448EF0BF04AEF0BF021
:101690004CEF0BF00F0E226E2250020D010EF324C0
:1016A000F66E100EF420F76EF86A000EF8220900AC
:1016B000F5CF3EF00900F5CF3FF002D869EF0BF00F
:1016C0000500FA6E3E50FD6E3F50FE6EFF6AFA5006
:1016D0001200226E12002490020E236E78EF0BF09F
:1016E000B5EC0DF09CEF0BF0B1EC0DF09CEF0BF0B6
:1016F00011C03AF012C03BF002D888EF0BF00500A1
:10170000FA6E0550FD6E0650FE6EFF6AFA5012002A
:101710003C6E3D6A3D50000AD8B491EF0BF074EF77
:101720000BF03C50020AD8B470EF0BF0010AD8B4A9
:1017300070EF0BF074EF0BF01200000E00017F6FE2
:10174000000E7F6FBBEF0BF079C0F6FF7AC0F7FF9A
:10175000000EF86E0F0EF76403D00800F55005D0A8
:10176000F6CFE9FFF7CFEAFFEF5005EC0DF00001EF
:10177000794B7A2B7F2B7F517D6F7E6B7B517D5D0B
:101780007C517E59D8A0C7EF0BF0C9EF0BF0A4EF46
:101790000BF01200080EB86E900EAB6E240EAC6EFD
:1017A000A00EAF6E010EB06E000E0001786F000E3D
:1017B000796F7FEC0DF0000E0001786F000E796FED
:1017C0007AEC0DF0000E0001786F000E796F84EC5A
:1017D0000DF0000E306E12000001786F010E000156
:1017E000796F24B2F6EF0BF0F8EF0BF00BEF0CF083
:1017F0002482000E796F7851D8B401EF0CF003EF1A
:101800000CF007EF0CF0010E226E09EF0CF0020E47
:10181000226ED0EC0DF000017951120020EE02F0A2
:101820003A50D9263B50DA22DECF31F0DDCF32F00C
:101830003AC0D9FF3BC0DAFFDECF33F0DDCF34F062
:10184000E8EC0CF0000E366E000E376E000E386EAF
:10185000000E396E29EC0DF0020E1200000E8D6E96
:10186000000E8C6E000E896E000E8A6E000E8B6E5E
:10187000070E966E92689368BF0E946E95687E68A8
:101880001F0E7F6E000E7C6EF18E1200010E0001A5
:10189000786F24B24EEF0CF050EF0CF05AEF0CF0D2
:1018A00024941D68D6EC0DF0D2EC0DF0D4EC0DF0C4
:1018B00023C078F00001785112003AC031F03BC0EB
:1018C00032F0000E346E010E336EE8EC0CF0000EB8
:1018D000366E000E376E000E386E000E396E29EC33
:1018E0000DF0040E12003AC031F03BC032F0000E91
:1018F000346E020E336EE8EC0CF0000E366E000E05
:10190000376E000E386E000E396E29EC0DF0020EA7
:1019100012003AC031F03BC032F0000E346E010EBE
:10192000336EE8EC0CF0000E366E000E376E000ED3
:10193000386E000E396E29EC0DF0020E12003AC01E
:1019400031F03BC032F0000E346E020E336EE8EC24
:101950000CF0000E366E000E376E000E386E000E64
:10196000396E29EC0DF0040E120000EE60F0180E36
:10197000EE6AE806FDE100EE01F0300EEE6AE806E0
:10198000FDE14A904A9200011DEF08F024A6CBEF3A
:101990000CF0CDEF0CF0D6EF0CF078C01EF079C053
:1019A0001FF07AC020F07BC021F024961200C6BA46
:1019B000DCEF0CF0DEEF0CF0E7EF0CF0800EC76E02
:1019C000080EC66E000EC56E270EC86EC68A1200BF
:1019D00024A6EDEF0CF0EFEF0CF0F8EF0CF031C0B7
:1019E0001EF032C01FF033C020F034C021F0249626
:1019F00012000001846F000E0001816F8451D1EC50
:101A000009F00001856F855112000001786F9EA8D2
:101A10000CEF0DF00EEF0DF007EF0DF078C0ADFFFD
:101A200012007DC078F07EC079F07FC07AF080C06F
:101A30007BF0000E12EC0AF012007DC078F07EC040
:101A400079F07FC07AF080C07BF0020E12EC0AF0D1
:101A5000120036C031F037C032F038C033F039C030
:101A600034F0000EC8EC0AF012009DEC0DF04BECC7
:101A70000DF02EEC0CF075EC0DF0CAEC0BF0120032
:101A80000001866F84C081F085C082F0000186511C
:101A90008CEC0AF01200800EC76E080EC66E000EA7
:101AA000C56E270EC86EC69A1200C5BC5AEF0DF05F
:101AB0005DEF0DF0010E5EEF0DF0000E1200000163
:101AC000856F84C081F000018551D1EC09F01200CE
:101AD00024801D500109C1EC0DF0050E1200248078
:101AE0001D50C1EC0DF0030E1200300ED36E000E2F
:101AF0009B6E120078C08EF079C08FF0120078C013
:101B000090F079C091F0120078C08CF079C08DF01F
:101B1000120078C02BF079C02CF012002492000E35
:101B2000236E0E0E12002490DEEC0DF0040E120057
:101B30002492000E236E0E0E1200D08EA2869F8677
:101B40001200000EECEC0BF01200CBEC0DF0090EC5
:101B50001200CBEC0DF00A0E1200C8EC0DF0050ED1
:101B60001200E4EC0DF0000E1200E6EC0DF0010E98
:101B70001200E6EC0DF0020E1200E6EC0DF0010E84
:101B80001200316E31C0C9FF120037EC0BF01200A9
:101B9000C59AC5881200C58AC58812009D861200A4
:101BA000C58012009D961200C69A12009E961200E1
:101BB0009E9612009E861200C9501200C586120021
:101BC000050E1200010E1200C5841200C58212001B
:020000040030CA
:0E000000FF021F1EFF8B85FF0FC00FE00F4099
:00000001FF
